:1000000046C06AC0E4C668C067C01FCA65C064C095
:1000100063C062C061C060C05FC05EC05DC062C1DD
:1000200063C168C16AC16DC16EC16FC171C172C166
:1000300073C175C176C178C17BC168C871C87DC8FC
:1000400051C87BC852C876C87EC877C876C875C8FC
:1000500074C873C872C871C870C875C86EC86DC8D6
:100060006CC86BC86AC801020000040001020408E1
:10007000102002020202020200000000360000000E
:10008000000038000000000037000F024302112476
:100090001FBECFE5D2E0DEBFCDBF10E0A0E6B0E0EE
:1000A000E8E5FBE102C005900D92A639B107D9F74A
:1000B00021E0A6E9B0E001C01D92A736B207E1F742
:1000C00010E0CCE8D0E003C02297FE0107DCCA387C
:1000D000D107D1F785DB34CD93CF80917A00909111
:1000E0007B00019690937B0080937A0080917A0048
:1000F00090917B000B9734F081E090E090937B002F
:1001000080937A0060917A0070917B008CE990E096
:1001100074D9909397008093960062E370E080E03A
:1001200090E00EDA80917A0090917B0040E0019798
:1001300019F46FEF80E002C060E08FEFA0D39B0165
:10014000AC0160E070E082E091E023D382E091E0D6
:1001500020D262E370E080E090E0F2D920E030E06D
:10016000A90160E070E082E091E013D382E091E0C9
:1001700010C282E091E09FD182E091E00AD26FE963
:1001800071E081EE90E0BAD36DE670E081EE90E030
:10019000B9D362EF71E081EE90E0B8D360E570E032
:1001A00081EE90E0A7D360E084E027DA40E855E2F2
:1001B00060E070E082EC90E006D721E041E062EC84
:1001C00070E08CE990E0E8D8811101C0FFCF64E1D4
:1001D0008CE990E0CED860E08CE990E0CED862E087
:1001E0008CE990E0CED860917A0070917B008CE928
:1001F00090E003D9909397008093960062E370E0BB
:1002000080E090E09DC981EE90E0DAC48F929F92E9
:10021000AF92BF92CF92DF92EF92FF920F931F9314
:10022000CF93DF936B017C01842E912CA12CB12CF8
:1002300080919A0090919B00892BD1F5C0E0D0E08D
:1002400000E010E082E091E023D30817190758F48A
:10025000B8016C0F7D1FA701960182E091E099D251
:100260000D5F1F4FEFCF82E091E093D1C501B40144
:1002700067D900E010E082E091E00AD3081719077F
:1002800060F4B8016C0F7D1F20E030E0A90182E02E
:1002900091E07FD20D5F1F4FEECF2196C330D10585
:1002A00079F684E03CDA90939B0080939A00C0CF6B
:1002B00010929B0010929A0082E091E0DF91CF9122
:1002C0001F910F91FF90EF90DF90CF90BF90AF9074
:1002D0009F908F905EC18E30910580F5FC01E15FAB
:1002E000FF4F09944FEF12C040E060E08FEFC7D29C
:1002F00044E623C04FEF60E002C040E06FEF80E0D3
:10030000F6CF4FEFF2CF4FEFF9CF40E06FEFEECFE8
:100310004FEF0FC040E006C04FEF60E007C040E085
:1003200004C04FEF60E006C04FEF6FEF80E003C006
:1003300040E06FEF8FEFA3D248EC68CF0895E091D3
:100340007A00F0917B00EE0FFF1FEC59FF4F808188
:100350009181019691838083E0917A00F0917B00F6
:10036000EE0FFF1FEC59FF4F2081318180919600E5
:10037000909197008217930764F4E0917A00F091CE
:100380007B00EE0FFF1FEC59FF4F81E090E091835F
:100390008083E0917A00F0917B00EE0FFF1FEC5913
:1003A000FF4F4081518160917A0070917B008CE910
:1003B00090E01FD8809198009091990001969093B9
:1003C00099008093980080919800909199000E97E1
:1003D00024F01092990010929800809198009091CA
:1003E000990079CF41E063E68CE990E002D88091F2
:1003F00098009091990001969093990080939800AD
:1004000080919800909199000E9724F01092990095
:100410001092980080919800909199005CCF26E00E
:1004200043E064E070E082E091E08ED121E041E0C1
:1004300050E062E070E081EE90E02ED220E041E0FA
:1004400060E082EC90E091D584EF91E0A0E0B0E034
:100450008093A2009093A300A093A400B093A50062
:100460008AE0ECE7F0E0A0EBB0E001900D928A9515
:10047000E1F71092BA0082E08093BB001092C000B6
:100480001092C100089582EC90E01BD582E091E0CB
:1004900000C0CF93DF93EC018F819885009709F01E
:1004A000B9DA8D8187FD04C060E0DF91CF91A5C8E6
:1004B000DF91CF910895CF93DF93EC018D8187FD7C
:1004C00005C061E09AD860E08D81E1D881E0888341
:1004D000DF91CF910895EF92FF920F931F93CF93E7
:1004E000DF93EC017B018F819885009709F092DA08
:1004F0009C858985981303C083E090E002C084E066
:1005000090E0B70173D98C019C838B83EBD99887DA
:100510008F83009739F0A80160E070E00ADBFA826F
:10052000E98204C01C821B821A821982DF91CF915A
:100530001F910F91FF90EF900895FC0141E0948589
:100540008185981340E0562F5295569556955370D5
:100550005487862F90E09C0174E0359527957A9515
:10056000E1F72370218795958795959587958370F9
:1005700082876370638787819085892B49F081E04A
:10058000521380E0841721F061817281CF01A3CFE3
:100590000895CF92DF92EF92FF920F931F93CF9324
:1005A000DF93CDB7DEB727970FB6F894DEBF0FBE47
:1005B000CDBF8C01DC0117968D919C911897892BEA
:1005C00009F484C098D7F801C584D684E784F088FC
:1005D0006C197D098E099F096C3271408105910566
:1005E00088F3F894D80113968D919C9114979A836F
:1005F000898317960D90BC91A02DFD0131968C91A9
:100600008F831B8298B3D80153968C91982B9E832D
:1006100098B3809589238D838D818C838F8187FF0B
:1006200002C08E818C835E816D814F813C812B81E4
:1006300089819A8158BB262F38BB00C046FD252FE3
:1006400068BB00C058BB362F28BB00C045FD352F06
:1006500068BB00C058BB262F38BB00C044FD252F07
:1006600068BB00C058BB362F28BB00C043FD352FE8
:1006700068BB00C058BB262F38BB00C042FD252FE9
:1006800068BB00C058BB362F28BB00C041FD352FCA
:1006900068BB00C058BB262F38BB00C040FD252FCB
:1006A00068BB019758BB362F28BB419147FD352FBA
:1006B00068BB01F64F833C832B839A8389837894AC
:1006C0001AD7F801658776878787908B27960FB6AC
:1006D000F894DEBF0FBECDBFDF91CF911F910F9178
:1006E000FF90EF90DF90CF9008951F93CF93DF930B
:1006F000EC01162F8881882329F08D8187FD02C0A7
:1007000060E07BD71D838881882331F061E0812FF1
:1007100074D760E0812FBBD7812F90E0FC01EE58A9
:10072000FF4FE491F0E0EE0FFF1FE258FF4F2591DD
:1007300034913A8B298BFC01E459FF4F84918B8BC8
:10074000DF91CF911F910895EF92FF920F931F9326
:10075000CF93DF931F92CDB7DEB77C018B01FC01F5
:100760001082168210861782158616861786108AC2
:10077000622F4983E2DEB801C701ADDE4981642FF3
:10078000C7010F90DF91CF911F910F91FF90EF90D4
:10079000ACCF6F927F929F92AF92BF92CF92DF9237
:1007A000EF92FF920F931F93CF93DF93FC013B01D6
:1007B00089019A01818192816817790708F051C0F7
:1007C000C901AA27BB27A82EC12ED22EE32EFF24B3
:1007D000BC2C902E4681442381F0C42FD0E090E0C1
:1007E000BE0104D8A92E8C2D90E0BE01FFD7B92EF2
:1007F000802F90E0BE01FAD7992E54858185C7815C
:10080000D085581308C0C30163E070E0EFD77E01C4
:10081000E80EF91E17C07301EE0CFF1CEE0CFF1C56
:10082000EC0EFD1E832F9927AA27BB27E701C50FD2
:10083000D11D442329F0642F70E090E0D7D701C088
:10084000982F98838185D701A80FB11DAC9282851E
:10085000D701A80FB11DBC928385F701E80FF11DE8
:100860009082DF91CF911F910F91FF90EF90DF90D9
:10087000CF90BF90AF909F907F906F900895962FEC
:1008800050E060E070E0592B682BCB01BA0108956D
:10089000FC01818192810895FC01862FA2E3B0E0E2
:1008A000B383A283A8E5B2E0B583A483A8EEB3E046
:1008B000B783A68312861486138616861586108A39
:1008C0001786128A118A148A138A168A158A108E3C
:1008D000178A60837183452B19F01186108604C036
:1008E00041E050E051874087222311F062E001C0CF
:1008F00060E083C6FC01738362830895FC01748702
:1009000063870895FC01768765870895FC01768BDF
:10091000658B08958F929F92BF92CF92DF92EF9254
:10092000FF920F931F93CF93DF9300D000D0CDB7EA
:10093000DEB74C01B62ED3D5D40157962D913C91FC
:1009400058972115310531F4BB2009F429C121E064
:1009500030E0A9C02130310509F063C0D4015996B7
:100960000D911D912D913C915C976B017C01C01AFA
:10097000D10AE20AF30AB11013C012960D911C912C
:10098000139720E030E0C016D106E206F30628F403
:1009900058961C921E92579703C122E030E03DC04A
:1009A000F4010681178120E030E00C151D052E05AD
:1009B0003F0508F0F5C021E022870784F089E02D8B
:1009C000309749F069837A838B839C8309959C8156
:1009D0008B817A816981D4015196ED91FC91529776
:1009E000309749F069837A838B839C8309959C8136
:1009F0008B817A816981D4015596ED91FC9156974E
:100A0000309749F069837A838B839C8309959C8115
:100A10008B817A81698126E030E0F401308F278B69
:100A20007CC02230310509F048C0F40125853685A7
:100A3000232B99F0018D128D238D348D6B017C0158
:100A4000C01AD10AE20AF30A0481158120E030E0DD
:100A50000C151D052E053F0560F4D4011B96ED9184
:100A6000FC911C97309709F00995F401108E178AB4
:100A700097C0BB2009F494C0D401058D168D278D35
:100A800030A16B017C01C01AD10AE20AF30A02818B
:100A9000138120E030E00C151D052E053F0508F000
:100AA0007FC023E030E058963C932E935797F40193
:100AB000618F728F838F948F73C023303105A9F5B6
:100AC000B1106EC0D40159960D911D912D913C919C
:100AD0005C976B017C01C01AD10AE20AF30A1296F4
:100AE0000D911C91139720E030E00C151D052E058B
:100AF0003F0508F055C01D96ED91FC911E9730976B
:100B000049F069837A838B839C8309959C818B81CF
:100B10007A816981F401108E178AD4015D966D93F4
:100B20007D938D939C9390973BC026303105C1F502
:100B3000B1101BC0F40112860388F489E02D3097B0
:100B400049F069837A838B839C8309959C818B818F
:100B50007A816981D40158961C921E925797F401AC
:100B6000658F768F878F90A31BC081E0D4011A9682
:100B70008C931A975596ED91FC915697309781F08A
:100B80000F900F900F900F90DF91CF911F910F91C9
:100B9000FF90EF90DF90CF90BF909F908F9009943F
:100BA0000F900F900F900F90DF91CF911F910F91A9
:100BB000FF90EF90DF90CF90BF909F908F9008951F
:100BC000CF93DF93EC018881998197FD0CC0A7D565
:100BD00061E0288539858217930709F060E0CE012E
:100BE000DF91CF9197CEDF91CF9108952091580159
:100BF0003091590128173907B9F490911601809165
:100C00001701981789F0E0911601F0E0E85EFE4FB9
:100C100080812091160130E02F5F3F4F2F733327E3
:100C20002093160190E008958FEF9FEF08951F9392
:100C3000CF93DF93DC015C968D919C915D9700973B
:100C400049F481E090E013969C938E93129780E094
:100C500090E03BC05196ED91FC91529750962C91AB
:100C60005097322F30951FB75E964C915E9741FB9F
:100C7000772770F941FD6095F8944081772311F052
:100C8000422B01C043234083EC012197F1F748E058
:100C9000508160FF02C0522B01C053235083EC01EE
:100CA0002197F1F76695415099F78081772311F0EC
:100CB000832301C0822B80831FBF5C968D919C9102
:100CC0005D970197F1F781E090E0DF91CF911F915F
:100CD000089520915801309159012817390781F45E
:100CE0009091160180911701981751F0E09116012B
:100CF000F0E0E85EFE4F8081992787FD909508958A
:100D00008FEF9FEF089520915801309159012817D6
:100D1000390769F4809117012091160190E0805CF9
:100D20009F4F821B910960E470E085D5089580E0B3
:100D300090E0089520915801309159012817390702
:100D400039F48FB7F89410921701109216018FBFE3
:100D50000895E0915801F0915901E817F90769F4F5
:100D6000A389B4899C918589809589238C9310925D
:100D700059011092580181E0089580E00895CF93C1
:100D8000DF93EC018A8D9B8D892BE9F080915801CE
:100D9000909159018C179D07B1F0009709F0D9DFA8
:100DA0008E8D8E7F8E8F1092170110921601D09328
:100DB0005901C0935801EB89FC8980819D89892B59
:100DC000808381E001C080E0DF91CF9108951F9280
:100DD0000F920FB60F9211242F933F934F935F936F
:100DE0006F937F938F939F93AF93BF93EF93FF93F3
:100DF000E0915801F0915901309709F451C0868D66
:100E0000A685B785958581FF04C08C91892329F437
:100E100047C08C91892309F043C0A389B4899C9170
:100E20008589809589238C93868997890197F1F725
:100E3000208D318DA685B785758558E040E0C901C4
:100E40000197F1F7842F90E095958795482F6C9145
:100E5000672309F04068515091F7868D81FD4095D8
:100E60008091170190E001968F73992720911601C8
:100E7000281749F0A0911701B0E0A85EBE4F4C932F
:100E80008093170103C0868D8160868F828D938D3C
:100E90000197F1F7A389B4898C919589892B8C935B
:100EA000FF91EF91BF91AF919F918F917F916F9142
:100EB0005F914F913F912F910F900FBE0F901F9018
:100EC00018952AE830E0FC013183208342CF1F933C
:100ED000CF93DF93EC01162F6E8D6695617081E0E4
:100EE0006827812FD4D361E0812F87D3812F90E0B1
:100EF000FC01E459FF4FE491E88BFC01EE58FF4FF1
:100F0000E491F0E0EE0FFF1FE258FF4F85919491BE
:100F10009A8B898BDF91CF911F9108951F93CF9367
:100F2000DF93EC01162F60E0812F67D38E8D81FD5A
:100F300003C061E0812FABD31C87812F90E0FC01BF
:100F4000E459FF4FE491ED87FC01EE58FF4FE49127
:100F5000F0E0EE0FFF1FE858FF4F859194919F87B7
:100F60008E87DF91CF911F910895FF920F931F936A
:100F7000CF93DF93EC01F62E522F1B821A8208EEDC
:100F800013E020E030E00C831D832E833F838AE84A
:100F900090E0998388831F8A1E8A198E188E1B8E73
:100FA0001A8E1D8E1C8E8E8D8E7F50FB81F98E8F3A
:100FB000642FCE018CDF6F2DCE01DF91CF911F9179
:100FC0000F91FF90ABCFCF93DF93EC019A01AB0170
:100FD0001B8E1A8E198E188E1F8A1E8A60E874E87E
:100FE0008EE190E05DD4C9012430310520F0B901D3
:100FF0006350710902C061E070E07D8F6C8F6C8579
:10100000663008F03EC0B901769567956431710588
:1010100018F06351710902C061E070E07F8B6E8B44
:10102000069718F0C901059702C081E090E0998FFA
:10103000888FC90163E070E0D9D39695879596951E
:1010400087958D30910510F00C9702C081E090E0FB
:101050009B8F8A8F8BB780628BBF2C85263018F4CC
:1010600085E390E002C080E090E09C8B8B8B81E078
:1010700001C0880F2A95EAF78D8B8C8D9D8D019785
:10108000F1F7CE01DF91CF917ACE21E030E080E020
:1010900090E0FB01E20FF31F4081840F911D2F5F51
:1010A0003F4F27303105A9F7919581959109089512
:1010B000FC014585413409F44CC041A3878590E08B
:1010C000982F88272089820F911D93A382A350E037
:1010D0004A53510946315105B0F5435E5F4F4F9376
:1010E0005F930895168E85E02AC080FF03C0168E98
:1010F00089E025C081FF03C0168E84E020C0837084
:101100009927892B39F1168E8AE019C080FF03C018
:10111000168E87E014C081FF1DC0168E82E00FC0BE
:1011200080FF03C0168E88E00AC081FF13C0168EB0
:1011300083E005C0168E86E002C0168E8BE080A389
:1011400081E084A30895168E81E080A313A212A2E9
:1011500084A315A20895CF93DF93EC01BC01665FD1
:101160007F4F93DF298930E0322F22274A89240FCD
:10117000311D41E08217930709F040E0842FDF9191
:10118000CF9108950F931F93CF93DF93EC01888144
:101190009981DC01ED91FC910480F581E02D0995A8
:1011A000892BE1F160E070E0CB01CAD11E8D88810E
:1011B0009981DC01ED91FC910680F781E02D111100
:1011C00006C009958A878E3711F78E8D24C0099540
:1011D000FE01E10FF11D82878E8D823069F089302A
:1011E00079F08130C1F49B859F3FA9F01E8E81E08C
:1011F00088A31BA21AA22CC09C85963061F0F6CF62
:101200008B898F3E99F7CE01A6DF882379F31E8E56
:10121000CE014EDF21C08F5F8E8FB9CF8DA1882385
:10122000D9F05DD10A811B812C813D81601B710B3E
:10123000820B930B0E811F812885398560177107FA
:101240008207930748F01E8E18A21BA21AA281E003
:101250008CA31DA280E001C08CA1DF91CF911F91D2
:101260000F910895CF93DF93EC01888D811122C0F7
:1012700088819981DC01ED91FC910280F381E02D60
:101280004AE050E0BE016C5E7F4F099528D16A8329
:101290007B838C839D83888D91E0811101C090E0D8
:1012A0009DA3811111C06AE070E080E090E0DF91C1
:1012B000CF9146C18DA18823D9F260E070E0CB01C7
:1012C0003FD1CE015FDFF6CFDF91CF910895CF936D
:1012D000DF93EC016F8B598F4A8FBC016C5E7F4F9F
:1012E000D4DE9B8F8C8FCE01DF91CF91BBCF40E0BE
:1012F00050E0EDCF30E0342BA901E9CF8F929F92DF
:10130000AF92BF92CF92DF92EF92FF921F93CF9353
:10131000DF93EC016A017B01E2D04B015C01C11457
:10132000D104E104F10499F4CE80DF80E884F984EB
:101330000EC0D5D0681979098A099B09C616D70647
:10134000E806F90648F060E070E0CB01F9D0CE0184
:1013500019DF182F882369F3812FDF91CF911F9117
:10136000FF90EF90DF90CF90BF90AF909F908F90C5
:101370000895462F50E066E0AACF462F50E067E080
:10138000A6CF462F50E069E0A2DF68EC70E080E075
:1013900090E0D6C06CE0ABCF1F93CF93DF93EC010E
:1013A000142F79836883442319F081E0888F01C06A
:1013B000188E222371F0CE01EDDF40ED57E060E0A2
:1013C00070E0CE019BDF68EC70E080E090E0B8D088
:1013D00002C084E088A31CA288A1843029F089304F
:1013E00019F081E0812701C081E0DF91CF911F9149
:1013F0000895242F462F6FE07DCFCF93DF93EC012C
:10140000AB016EE464DF40E050E0BA01CE0176DF6C
:10141000811103C08FEF9FEF06C01CA288A18B3003
:10142000C9F78AA19BA1DF91CF91089580B7807FF2
:1014300080BF80B7806880BF8CB580648CBD8FEF23
:101440008DBD80B7876080BF08951F920F920FB641
:101450000F9211242F933F938F939F93AF93BF933A
:1014600080915B0190915C01A0915D01B0915E0162
:1014700030915A0126E0230F2D3730F029E8230F51
:101480000396A11DB11D03C00296A11DB11D20939D
:101490005A0180935B0190935C01A0935D01B0932E
:1014A0005E0180915F0190916001A0916101B09116
:1014B00062010196A11DB11D80935F0190936001AF
:1014C000A0936101B0936201BF91AF919F918F9101
:1014D0003F912F910F900FBE0F901F9018952FB72F
:1014E000F89460915B0170915C0180915D01909135
:1014F0005E012FBF08953FB7F89480915F019091EE
:101500006001A0916101B091620122B708B601FEAD
:1015100005C02F3F19F00196A11DB11D3FBF6627E1
:10152000782F892F9A2F620F711D811D911D43E025
:10153000660F771F881F991F4A95D1F70895089560
:10154000CF92DF92EF92FF92CF93DF936B017C01FA
:10155000D2DFEB01C114D104E104F10479F0EFDF33
:10156000CADF6C1B7D0B683E7340A0F381E0C81A94
:10157000D108E108F108C851DC4FF2CFDF91CF91DB
:10158000FF90EF90DF90CF9008958AB582608ABD7A
:101590008AB581608ABD83B7887F836083BF789472
:1015A00089B7826089BF42DF86B18877866886B94D
:1015B000379A0895813031F48AB58F778ABD8AB51C
:1015C0008F7B07C0823039F48AB58F7D8ABD8AB59A
:1015D0008F7E8ABD0895833039F480B78F7D80BFB8
:1015E00080B78F7E80BF0895843031F48CB58F7DB5
:1015F0008CBD8CB58F7E8CBD0895CF93DF9387FF14
:101600000FC08F7741F0813041F0823041F083305C
:1016100039F08FEF05C085E003C082E001C084E0AF
:1016200090E0FC01E459FF4F2491FC01EE58FF4F7C
:101630008491882349F190E0880F991FFC01EC57B1
:10164000FF4FA591B49182589F4FFC01C591D49151
:101650009FB7611108C0F8948C91209582238C93D8
:10166000888182230AC0623051F4F8948C91322F21
:10167000309583238C938881822B888304C0F894CF
:101680008C91822B8C939FBFDF91CF9108950F9304
:101690001F93CF93DF931F92CDB7DEB787FF0FC0A5
:1016A0008F7741F0813041F0823041F0833039F062
:1016B0008FEF05C085E003C082E001C084E0282FE1
:1016C00030E0F901EA59FF4F8491F901E459FF4FE5
:1016D0001491F901EE58FF4F04910023D1F08823B3
:1016E00019F0698367DF6981E02FF0E0EE0FFF1FDB
:1016F000E258FF4FA591B4919FB7611105C0F894CE
:101700008C911095812303C0F8948C91812B8C933C
:101710009FBF0F90DF91CF911F910F910895CF93AD
:10172000DF9387FF0FC08F7741F0813041F0823027
:1017300041F0833039F08FEF05C085E003C082E0CF
:1017400001C084E0282F30E0F901EA59FF4F84916D
:10175000F901E459FF4FD491F901EE58FF4FC491BC
:10176000CC2389F0811126DFEC2FF0E0EE0FFF1F74
:10177000E858FF4FA591B4912C912D2381E090E082
:1017800021F480E002C080E090E0DF91CF910895E5
:10179000CF92DF92EF92FF920F931F93CF93DF933D
:1017A0006C017A01EB01E60EF71E00E010E0CE15A9
:1017B000DF0561F06991D601ED91FC910190F08116
:1017C000E02DC6010995080F191FF1CFC801DF915F
:1017D000CF911F910F91FF90EF90DF90CF900895E0
:1017E00081B781BFD2DEC5D40ED5FECF00245527E8
:1017F00004C0080E591F880F991F009729F076958D
:101800006795B8F37105B9F7802D952F0895AA1B38
:10181000BB1B51E107C0AA1FBB1FA617B70710F0DB
:10182000A61BB70B881F991F5A95A9F7809590950D
:10183000BC01CD01089597FB072E16F4009406D045
:1018400077FD08D0E4DF07FC05D03EF49095819544
:101850009F4F0895709561957F4F0895A1E21A2ECC
:10186000AA1BBB1BFD010DC0AA1FBB1FEE1FFF1F44
:10187000A217B307E407F50720F0A21BB30BE40B94
:10188000F50B661F771F881F991F1A9469F76095DB
:101890007095809590959B01AC01BD01CF01089595
:1018A000052E97FB16F400940FD057FD05D0D6DF18
:1018B00007FC02D046F408C050954095309521951C
:1018C0003F4F4F4F5F4F089590958095709561956C
:1018D0007F4F8F4F9F4F0895EE0FFF1F0590F4919C
:1018E000E02D0994CF93DF938230910510F482E0CC
:1018F00090E0E0916501F091660120E030E0A0E029
:10190000B0E0309739F14081518148175907B8F05C
:101910004817590771F482819381109729F0139623
:101920009C938E9312972CC09093660180936501CF
:1019300027C02115310531F04217530718F0A901CE
:10194000DB0101C0EF019A01BD01DF010280F381DB
:10195000E02DD7CF21153105F9F0281B390B2430A4
:10196000310580F48A819B816115710521F0FB01AD
:101970009383828304C09093660180936501FE0186
:10198000329644C0FE01E20FF31F819391932250DF
:101990003109398328833AC0209163013091640171
:1019A000232B41F420916200309163003093640155
:1019B0002093630120916000309161002115310571
:1019C00041F42DB73EB74091640050916500241B4F
:1019D000350BE0916301F0916401E217F307A0F485
:1019E0002E1B3F0B2817390778F0AC014E5F5F4F75
:1019F0002417350748F04E0F5F1F50936401409342
:101A000063018193919302C0E0E0F0E0CF01DF91A8
:101A1000CF910895CF93DF93009709F487C0FC011D
:101A2000329713821282C0916501D091660120978E
:101A300081F420813181280F391F809163019091B9
:101A400064018217930779F5F0936401E0936301D1
:101A50006DC0DE0120E030E0AE17BF0750F41296F3
:101A60004D915C9113979D014115510509F1DA01E2
:101A7000F3CFB383A28340815181840F951F8A17CE
:101A80009B0771F48D919C911197840F951F02967D
:101A90009183808312968D919C9113979383828377
:101AA0002115310529F4F0936601E09365013EC0EC
:101AB000D9011396FC93EE9312974D915D91A40F6B
:101AC000B51FEA17FB0779F480819181840F951F78
:101AD0000296D90111969C938E93828193811396DD
:101AE0009C938E931297E0E0F0E08A819B810097AF
:101AF00019F0FE01EC01F9CFCE010296288139815F
:101B0000820F931F209163013091640128173907D8
:101B100069F4309729F4109266011092650102C0B1
:101B200013821282D0936401C0936301DF91CF913D
:101B30000895DC0101C06D9341505040E0F70895D5
:101B400010E0CCE8D0E003C0FE01C8DE2296CE381B
:081B5000D107D1F7F894FFCF93
:101B58000000670180000100010001000100010090
:101B68000100010001000100010001007EFF0600E4
:101B78000100000000EF000000001706C80B8306F4
:061B8800F60569069A064D
:00000001FF
