:1000000046C06AC07EC668C067C0E0C965C064C03B
:1000100063C062C061C060C05FC05EC05DC077C1C8
:1000200078C17DC17FC182C183C184C186C187C1BE
:1000300088C18AC18BC18DC190C10CC819C82BC899
:10004000ECC729C8EFC722C831C825C824C823C8AF
:1000500022C821C820C81FC81EC828C81CC81BC861
:100060001AC819C818C801020000040001020408D7
:10007000102002020202020200000000360000000E
:10008000000038000000000037002A025C02112442
:100090001FBECFE5D2E0DEBFCDBF10E0A0E6B0E0EE
:1000A000EAEDFAE102C005900D92A639B107D9F741
:1000B00021E0A6E9B0E001C01D92A937B207E1F73F
:1000C00010E0C6E4D0E003C02197FE01CCDBC534CC
:1000D000D107D1F74CDBF5CC93CF80917A0090918A
:1000E0007B00019690937B0080937A0080917A0048
:1000F00090917B000B9734F081E090E090937B002F
:1001000080937A0080917A0090917B0040E0019783
:1001100019F46FEF80E002C060E08FEFC5D39B0160
:10012000AC0160E070E084E191E046D384E191E0CD
:1001300049D262E370E080E090E0C5D920E030E091
:10014000A90160E070E084E191E036D384E191E0C0
:1001500039C20F931F93CF93DF9384E191E0C4D111
:1001600084E191E02FD264EB71E083EF90E0E1D382
:100170006DE670E083EF90E0E0D36DE072E083EF36
:1001800090E0DFD360E570E083EF90E0CED360E0F5
:1001900084E0F6D960ED77E080E090E094D940E823
:1001A00055E260E070E084ED90E0A2D621E041E00D
:1001B00064ED70E08EEA90E0B0D8811106C064E68C
:1001C00070E080E090E07FD9F1CF01E010E0E8013D
:1001D0002197B8018EEA90E0D1D8FE01EE0FFF1F03
:1001E000EA56FF4F91838083808191818EEA90E06F
:1001F00085D768EC70E080E090E065D90F5F1F4F15
:100200000B30110521F764E18EEA90E073D860E0CD
:100210008EEA90E073D862E08EEA90E073D862E3F1
:1002200070E080E090E0DF91CF911F910F914BC97A
:1002300083EF90E061C48F929F92AF92BF92CF9272
:10024000DF92EF92FF920F931F93CF93DF934B01B7
:100250005C01C42ED12CE12CF12C8091AC0090914A
:10026000AD00892BD1F5C0E0D0E000E010E084E1E2
:1002700091E029D30817190758F4BE01600F711FC8
:10028000A501940184E191E097D20D5F1F4FEFCF5C
:1002900084E191E097D1C701B60115D900E010E0E3
:1002A00084E191E010D30817190760F4BE01600FD4
:1002B000711F20E030E0A90184E191E07DD20D5F63
:1002C0001F4FEECF2196C330D10579F684E0ECD9EB
:1002D0009093AD008093AC00C0CF1092AD0010920F
:1002E000AC0084E191E0DF91CF911F910F91FF90DD
:1002F000EF90DF90CF90BF90AF909F908F9062C1B2
:100300008E30910580F5FC01E15FFF4F09944FEFBE
:1003100012C040E060E08FEFC7D244E623C04FEF49
:1003200060E002C040E06FEF80E0F6CF4FEFF2CF29
:100330004FEFF9CF40E06FEFEECF4FEF0FC040E04F
:1003400006C04FEF60E007C040E004C04FEF60E040
:1003500006C04FEF6FEF80E003C040E06FEF8FEF1C
:10036000A3D248EC68CF0895E0917A00F0917B0029
:10037000EE0FFF1FEC59FF4F808191810196918311
:100380008083E0917A00F0917B00EE0FFF1FEC5923
:10039000FF4F20813181E0917A00F0917B00EE0FD8
:1003A000FF1FEC56FF4F808191818217930764F401
:1003B000E0917A00F0917B00EE0FFF1FEC59FF4FA8
:1003C00081E090E091838083E0917A00F0917B005E
:1003D000EE0FFF1FEC59FF4F4081518160917A0071
:1003E00070917B008EEA90E0C5D78091AA00909131
:1003F000AB0001969093AB008093AA008091AA0075
:100400009091AB000E9724F01092AB001092AA00CE
:100410008091AA009091AB0073CF41E063E68EEA31
:1004200090E0A8D78091AA009091AB00019690939C
:10043000AB008093AA008091AA009091AB000E9728
:1004400024F01092AB001092AA008091AA00909123
:10045000AB0056CFCF93DF9326E043E064E070E03B
:1004600084E191E08CD121E041E050E062E070E075
:1004700083EF90E02CD220E041E060E084ED90E05A
:100480000ED5CEEAD0E084EF91E0A0E0B0E08E831C
:100490009F83A887B9878AE0ECE7F0E0A2ECB0E0A0
:1004A00001900D928A95E1F71E8E82E08F8F1CA23B
:1004B0001DA2DF91CF91089584ED90E09CD484E15A
:1004C00091E000C0CF93DF93EC018F819885009776
:1004D00009F067DA8D8187FD04C060E0DF91CF917C
:1004E0004FC8DF91CF910895CF93DF93EC018D81B9
:1004F00087FD05C061E044D860E08D8190D881E03F
:100500008883DF91CF910895EF92FF920F931F930D
:10051000CF93DF93EC017B018F819885009709F0E1
:1005200040DA9C858985981719F084E090E002C034
:1005300083E090E0B70121D98C019C838B8399D90A
:1005400098878F83009739F0A80160E070E0B2DAF5
:10055000FA82E98204C01C821B821A821982DF910E
:10056000CF911F910F91FF90EF900895FC0141E012
:1005700094858185981340E0562F5295569556954F
:1005800053705487862F90E09C0174E03595279531
:100590007A95E1F7237021879595879595958795AD
:1005A000837082876370638787819085892B49F088
:1005B00081E0521380E0481721F061817281CF0100
:1005C000A3CF0895CF92DF92EF92FF920F931F93E4
:1005D000CF93DF93CDB7DEB727970FB6F894DEBF82
:1005E0000FBECDBF8C01DC0117968D919C911897A1
:1005F000892B09F486C040D7F801C584D684E784E6
:10060000F088DC01CB018C199D09AE09BF098C3241
:100610009140A105B10578F3F894D80113968D9116
:100620009C9114979A83898317960D90BC91A02D65
:10063000FD0131968C918F831B8298B3D80153961C
:100640008C91982B9E8398B3809589238D838D817F
:100650008C838F8187FF02C08E818C835E816D8148
:100660004F813C812B8189819A8158BB262F38BBD1
:1006700000C046FD252F68BB00C058BB362F28BBE5
:1006800000C045FD352F68BB00C058BB262F38BBC6
:1006900000C044FD252F68BB00C058BB362F28BBC7
:1006A00000C043FD352F68BB00C058BB262F38BBA8
:1006B00000C042FD252F68BB00C058BB362F28BBA9
:1006C00000C041FD352F68BB00C058BB262F38BB8A
:1006D00000C040FD252F68BB019758BB362F28BBB3
:1006E000419147FD352F68BB01F64F833C832B8337
:1006F0009A8389837894C0D6F8016587768787873F
:10070000908B27960FB6F894DEBF0FBECDBFDF915A
:10071000CF911F910F91FF90EF90DF90CF900895B0
:100720001F93CF93DF93EC01162F8881882329F044
:100730008D8187FD02C060E023D71D8388818823D7
:1007400031F061E0812F1CD760E0812F68D7812FC5
:1007500090E0FC01EE58FF4FE491F0E0EE0FFF1F38
:10076000E258FF4F259134913A8B298BFC01E459D3
:10077000FF4FE491EB8BDF91CF911F910895EF92A2
:10078000FF921F93CF93DF93EC017B01142F18820C
:100790001E8218861F821D861E861F86188A622F5B
:1007A000E5DEB701CE01B0DE612FCE01DF91CF9142
:1007B0001F91FF90EF90B4CF4F925F926F927F9214
:1007C0008F929F92AF92BF92DF92EF92FF920F9320
:1007D0001F93CF93DF93FC01EB0189019A01818183
:1007E00092816817790708F04FC0290166247724A1
:1007F000D42C812E922EA32EBB24E82CF02E4681E1
:10080000442389F0A42FB0E0842D90E0BD01B5D73A
:10081000D92E882D90E0BD01B0D7E92E802F90E031
:10082000BD01ABD7F92E84859185A781B085891349
:1008300007C0CE0163E070E0A0D7A80FB91F16C0B3
:10084000CC0FDD1FCC0FDD1FAC0FBD1F032F1127F9
:1008500022273327ED01C80FD11D411102C0902F6F
:1008600004C0842F90E0B80188D798838185ED017A
:10087000C80FD11DD8828285ED01C80FD11DE88235
:100880008385A80FB11DFC92DF91CF911F910F912D
:10089000FF90EF90DF90BF90AF909F908F907F90F0
:1008A0006F905F904F9008950F931F93962F50E095
:1008B00060E070E0592B8A019B01282BC901B80127
:1008C0001F910F910895FC01818192810895FC018F
:1008D000862FA2E3B0E0B383A283A8E5B2E0B5839C
:1008E000A483A8EEB3E0B783A6831286148613868A
:1008F00016861586108A1786128A118A148A138A18
:10090000168A158A108E178A60837183452B19F019
:100910001186108604C041E050E0518740872223B1
:1009200011F062E001C060E02BC6FC0173836283BA
:100930000895FC01748763870895FC0176876587B5
:100940000895FC01768B658B0895CF92DF92EF922C
:10095000FF921F93CF93DF93EC01162F81D56B018C
:100960007C018F89988D009731F4112309F4BCC064
:1009700081E090E078C081309105D9F5898D9A8D1C
:10098000AB8DBC8DB701A601481B590B6A0B7B0BC5
:1009900011110FC08A819B81A0E0B0E04817590770
:1009A0006A077B0718F4188E1F8A9EC082E090E0C9
:1009B0001DC08E819F81A0E0B0E084179507A60737
:1009C000B70708F091C081E08A87EF85F8893097F2
:1009D00009F00995E989FA89309709F00995ED89B7
:1009E000FE89309709F0099586E090E0988F8F8B0B
:1009F00068C082309105F1F58D859E85892B99F02F
:100A0000898D9A8DAB8DBC8DB701A601481B590B02
:100A10006A0B7B0B8C819D81A0E0B0E08417950769
:100A2000A607B70738F4EB85FC85309709F4BBCFF0
:100A30000995B9CF112309F457C08D8D9E8DAF8DC7
:100A4000B8A1B701A601481B590B6A0B7B0B8A8121
:100A50009B81A0E0B0E084179507A607B70708F0D0
:100A600043C083E090E0988F8F8BC98EDA8EEB8E37
:100A7000FC8E3AC083309105C1F4111135C0898DC7
:100A80009A8DAB8DBC8DB701A601481B590B6A0B23
:100A90007B0B8A819B81A0E0B0E084179507A607B5
:100AA000B70710F5ED85FE8507C00697E9F411112B
:100AB0000DC01A86EB89FC89309709F00995188ECC
:100AC0001F8ACD8EDE8EEF8EF8A20EC081E08A875F
:100AD000ED89FE89309741F0DF91CF911F91FF9012
:100AE000EF90DF90CF900994DF91CF911F91FF900D
:100AF000EF90DF90CF900895CF93DF93EC01888142
:100B0000998197FD0CC0D0D561E0288539852817DB
:100B1000390709F060E0CE01DF91CF9116CFDF9168
:100B2000CF91089520916A0130916B012817390700
:100B3000B9F49091280180912901981789F0E091EA
:100B40002801F0E0E65DFE4F80812091280130E031
:100B50002F5F3F4F2F7333272093280190E0089594
:100B60008FEF9FEF08951F93CF93DF93DC015C9687
:100B70008D919C915D97009739F421E030E01396B8
:100B80003C932E9312973BC05196ED91FC91529756
:100B900050962C915097322F30951FB75E964C91FE
:100BA0005E97742F727041FD6095F89440817723B1
:100BB00011F0422B01C043234083EC012197F1F750
:100BC00048E0508160FF02C0522B01C05323508384
:100BD000EC012197F1F76695415099F780817723D1
:100BE00019F08323808302C0282B20831FBF5C96CB
:100BF0008D919C915D970197F1F781E090E0DF91F5
:100C0000CF911F91089520916A0130916B012817AF
:100C1000390781F49091280180912901981751F0AA
:100C2000E0912801F0E0E65DFE4F8081082E000C87
:100C3000990B08958FEF9FEF089520916A013091ED
:100C40006B012817390769F4809129012091280147
:100C500090E0805C9F4F821B910960E470E0B2D508
:100C6000089580E090E0089520916A0130916B0131
:100C70002817390739F48FB7F89410922901109288
:100C800028018FBF0895E0916A01F0916B01E81788
:100C9000F90769F4A389B4899C9185898095892392
:100CA0008C9310926B0110926A0181E0089580E0AC
:100CB0000895CF93DF93EC018A8D9B8D892BE9F00A
:100CC00080916A0190916B01C817D907B1F0009724
:100CD00009F0D9DF8E8D8E7F8E8F109229011092B0
:100CE0002801D0936B01C0936A01EB89FC89908144
:100CF0008D89892B808381E001C080E0DF91CF91D5
:100D000008951F920F920FB60F9211242F933F93C5
:100D10004F935F936F937F938F939F93AF93BF9303
:100D2000EF93FF93E0916A01F0916B01309709F422
:100D300051C0968DA685B785858591FF04C09C918D
:100D4000892329F447C09C91892309F043C0A389D2
:100D5000B4899C918589809589238C93868997890C
:100D60000197F1F7608D718DA685B785558538E0BF
:100D700020E0CB010197F1F7822F90E095958795C0
:100D8000282F4C91452309F02068315091F7868D2A
:100D900081FD20958091290190E001968F7399271C
:100DA00030912801381749F0A0912901B0E0A65DE3
:100DB000BE4F2C938093290103C0868D8160868F5E
:100DC000828D938D0197F1F7A389B4899C918589D0
:100DD000892B8C93FF91EF91BF91AF919F918F9150
:100DE0007F916F915F914F913F912F910F900FBE27
:100DF0000F901F9018952AE830E0FC013183208382
:100E000042CF1F93CF93DF93EC01162F6E8D669523
:100E1000617081E06827812F02D461E0812FB0D317
:100E2000812F90E0FC01E459FF4FE491E88BFC0135
:100E3000EE58FF4FE491F0E0EE0FFF1FE258FF4F36
:100E4000859194919A8B898BDF91CF911F91089511
:100E50001F93CF93DF93EC01162F60E0812F90D387
:100E60008E8D81FD03C061E0812FD9D31C87812F36
:100E700090E0FC01E459FF4FE491ED87FC01EE584E
:100E8000FF4FE491F0E0EE0FFF1FE858FF4F859110
:100E900094919F878E87DF91CF911F9108951F9323
:100EA000CF93DF93EC01162F1B821A8288EE93E01A
:100EB000A0E0B0E08C839D83AE83BF838AE890E09E
:100EC000998388831F8A1E8A198E188E1B8E1A8E0C
:100ED0001D8E1C8E8E8D8E7F20FB81F98E8F642F50
:100EE000CE018FDF612FCE01DF91CF911F91B0CF67
:100EF000CF93DF93EC019A01AB011B8E1A8E198EF2
:100F0000188E1F8A1E8A60E874E88EE190E08FD404
:100F1000B9012430310518F0C901039702C081E0FE
:100F200090E09D8F8C8F8C85863008F03EC0C90183
:100F3000969587958431910510F0439702C081E022
:100F400090E09F8B8E8B6630710518F0C901059774
:100F500002C081E090E0998F888FC90163E070E062
:100F60000CD496958795969587958D30910510F0C0
:100F70000C9702C081E090E09B8F8A8F8BB78062D4
:100F80008BBF9C85963018F020E030E002C025E34E
:100F900030E03C8B2B8B81E001C0880F9A95EAF7FB
:100FA0008D8B8C8D9D8D0197F1F7CE01DF91CF91C7
:100FB00080CEFB013196695F7F4F80E090E0219108
:100FC000820F911DE617F707D1F791958195910949
:100FD0000895DC011D96EC911D97E13409F474C06D
:100FE0009196EC9391971F968C911F9790E0982F74
:100FF000882750962C915097820F911D93969C9321
:101000008E9392974E2F50E0FA01FA97E631F10550
:1010100008F04CC0E35EFF4F09945E961C925E9709
:1010200085E03DC080FF05C05E961C925E9789E01A
:1010300036C081FF05C05E961C925E9784E02FC08B
:1010400083709927892B09F441C05E961C925E97A4
:101050008AE025C080FF05C05E961C925E9787E0FF
:101060001EC081FF33C05E961C925E9782E017C05F
:1010700080FF05C05E961C925E9788E010C081FFDD
:1010800025C05E961C925E9783E009C05E961C9216
:101090005E9786E004C05E961C925E978BE0909609
:1010A0008C93909781E094968C9308955E961C9211
:1010B0005E9781E090968C93909793961C921E92E7
:1010C000929794968C93949795961C920895CF93AB
:1010D000DF93EC01BC01665F7F4F6BDF298930E055
:1010E000322F22274A89240F311D41E02817390762
:1010F00009F040E0842FDF91CF9108950F931F9363
:10110000CF93DF93EC0188819981DC01ED91FC9113
:101110000480F581E02D0995892BE1F160E070E014
:10112000CB01D1D11E8D88819981DC01ED91FC919B
:101130000680F781E02D111106C009958A878E3748
:1011400011F78E8D24C00995FE01E10FF11D8287F4
:101150008E8D823069F0893079F08130C1F49B85C1
:101160009F3FA9F01E8E81E088A31BA21AA22EC069
:101170009C85963061F0F6CF8B898F3E99F7CE0132
:10118000A6DF882379F31E8ECE0123DF23C08F5F75
:101190008E8FB9CF8DA18823E9F062D10A811B819E
:1011A0002C813D81DC01CB01801B910BA20BB30B89
:1011B0000E811F812885398580179107A207B30703
:1011C00048F01E8E18A21BA21AA281E08CA31DA2B9
:1011D00080E001C08CA1DF91CF911F910F91089504
:1011E000CF93DF93EC01888D882351F08DA1882364
:1011F00039F060E070E0CB0166D1CE017FDFF6CF41
:1012000088819981DC01ED91FC910280F381E02DD0
:101210004AE050E0BE016C5E7F4F099521D16A83A0
:101220007B838C839D83888D91E0811101C090E048
:101230009DA3811107C06AE070E080E090E0DF913B
:10124000CF9141C1DF91CF910895CF93DF93EC010E
:101250006F8B598F4A8FBC016C5E7F4FAADE9B8FCC
:101260008C8FCE01DF91CF91BBCF40E050E0EDCF2E
:1012700030E0F901F42BAF01E8CF8F929F92AF924B
:10128000BF92CF92DF92EF92FF921F93CF93DF93A3
:10129000EC016A017B01E4D04B015C01C114D10473
:1012A000E104F10421F4CE80DF80E884F984CE01EA
:1012B00025DF182F811111C0D3D0DC01CB01881993
:1012C0009909AA09BB09C816D906EA06FB0628F03F
:1012D00060E070E0CB01F7D0EACF812FDF91CF91B2
:1012E0001F91FF90EF90DF90CF90BF90AF909F90B5
:1012F0008F900895462F50E066E0A7CF462F50E02C
:1013000067E0A3CF462F50E069E09FDF68EC70E014
:1013100080E090E0D8C06CE0A8CF1F93CF93DF931C
:10132000EC01142F79836883442319F081E0888FBE
:1013300001C0188E222371F0CE01EDDF40ED57E0A1
:1013400060E070E0CE0199DF68EC70E080E090E052
:10135000BAD002C084E088A31CA288A1843029F0FE
:10136000893019F081E0812701C081E0DF91CF91C0
:101370001F910895242F462F6FE07ACFCF93DF93EC
:10138000EC01AB016EE461DF40E050E0BA01CE0158
:1013900074DF811103C08FEF9FEF06C01CA288A1EC
:1013A0008B30C9F78AA19BA1DF91CF91089580B7B7
:1013B000807F80BF80B7806880BF8CB580648CBD23
:1013C0008FEF8DBD80B7876080BF08951F920F9209
:1013D0000FB60F9211242F933F938F939F93AF9348
:1013E000BF9380916D0190916E01A0916F01B091BA
:1013F000700130916C0126E0230F2D3730F029E881
:10140000230F0396A11DB11D03C00296A11DB11D9E
:1014100020936C0180936D0190936E01A0936F01F6
:10142000B09370018091710190917201A09173014C
:10143000B09174010196A11DB11D8093710190932B
:101440007201A0937301B0937401BF91AF919F910A
:101450008F913F912F910F900FBE0F901F90189575
:101460002FB7F89460916D0170916E0180916F01BA
:10147000909170012FBF08953FB7F894809171014A
:1014800090917201A0917301B091740122B708B6D6
:1014900001FE05C02F3F19F00196A11DB11D3FBFF0
:1014A000BA2FA92F982F8827820F911DA11DB11D3A
:1014B000BC01CD0143E0660F771F881F991F4A9535
:1014C000D1F708950895CF92DF92EF92FF92CF93D4
:1014D000DF936B017C01D0DFEB01C114D104E10487
:1014E000F10479F0EFDFC8DF6C1B7D0B683E7340C1
:1014F000A0F381E0C81AD108E108F108C851DC4F17
:10150000F2CFDF91CF91FF90EF90DF90CF900895D1
:101510008AB582608ABD8AB581608ABD83B7887FBB
:10152000836083BF789489B7826089BF40DF86B1CA
:101530008877866886B9379A0895813031F48AB5FC
:101540008F778ABD8AB58F7B07C0823039F48AB520
:101550008F7D8ABD8AB58F7E8ABD0895833039F428
:1015600080B78F7D80BF80B78F7E80BF0895843025
:1015700031F48CB58F7D8CBD8CB58F7E8CBD08957C
:10158000CF93DF9387FF11C08F7741F0813041F017
:10159000823041F0833041F08FEF07C085E005C015
:1015A00082E003C084E001C083E090E0FC01E459E4
:1015B000FF4F2491FC01EE58FF4F8491882361F185
:1015C00090E0880F991FFC01EC57FF4FC591D49113
:1015D000FC01E258FF4FA591B491611109C09FB77A
:1015E000F8948881209582238883EC912E230BC068
:1015F000623061F49FB7F8948881322F309583234D
:101600008883EC912E2B2C939FBF06C08FB7F89444
:10161000E8812E2B28838FBFDF91CF9108951F93F0
:10162000CF93DF93162F87FF11C08F7741F0813062
:1016300041F0823041F0833041F08FEF07C085E008
:1016400005C082E003C084E001C083E0282F30E0C1
:10165000F901EA59FF4F8491F901E459FF4FD49100
:10166000F901EE58FF4FC491CC23D1F0811165DF11
:10167000EC2FF0E0EE0FFF1FE258FF4FA591B49161
:10168000111108C09FB7F8948C91D095D823DC93A2
:101690009FBF06C08FB7F894EC91DE2BDC938FBF11
:1016A000DF91CF911F910895CF93DF9387FF11C0F2
:1016B0008F7741F0813041F0823041F0833041F04A
:1016C0008FEF07C085E005C082E003C084E001C061
:1016D00083E0282F30E0F901EA59FF4F8491F901A6
:1016E000E459FF4FD491F901EE58FF4FC491CC2338
:1016F00089F0811122DFEC2FF0E0EE0FFF1FE85898
:10170000FF4FA591B491EC91ED2381E090E021F49D
:1017100080E002C080E090E0DF91CF910895CF9209
:10172000DF92EF92FF920F931F93CF93DF936C01A1
:10173000EB017B01E40EF51E00E010E0CE15DF05A5
:1017400061F06991D601ED91FC910190F081E02D5D
:10175000C6010995080F191FF1CFC801DF91CF917C
:101760001F910F91FF90EF90DF90CF90089581B778
:1017700081BFCEDEEED45CD5FECF0024552704C059
:10178000080E591F880F991F009729F076956795C5
:10179000B8F37105B9F7802D952F0895AA1BBB1BCF
:1017A00051E107C0AA1FBB1FA617B70710F0A61B61
:1017B000B70B881F991F5A95A9F780959095BC0182
:1017C000CD01089597FB072E16F4009406D077FDFF
:1017D00008D0E4DF07FC05D03EF4909581959F4F3B
:1017E0000895709561957F4F0895A1E21A2EAA1B66
:1017F000BB1BFD010DC0AA1FBB1FEE1FFF1FA217C1
:10180000B307E407F50720F0A21BB30BE40BF50BBD
:10181000661F771F881F991F1A9469F76095709546
:10182000809590959B01AC01BD01CF010895052ED7
:1018300097FB16F400940FD057FD05D0D6DF07FCB8
:1018400002D046F408C050954095309521953F4F01
:101850004F4F5F4F089590958095709561957F4F9C
:101860008F4F9F4F0895EE0FFF1F0590F491E02DCD
:1018700009940F931F93CF93DF938230910510F457
:1018800082E090E0E0917701F091780120E030E093
:10189000A0E0B0E0309719F14081518102811381BD
:1018A00048175907C8F08417950769F4109731F065
:1018B00012960C93129713961C9327C000937701EE
:1018C0001093780122C02115310519F042175307F2
:1018D00018F49A01BD01EF01DF01F801DBCF2115FA
:1018E0003105F9F0281B390B2430310580F48A8149
:1018F0009B816115710521F0FB019383828304C0F4
:101900009093780180937701FE01329644C0FE01E6
:10191000E20FF31F81939193225031093983288379
:101920003AC02091750130917601232B41F420912A
:10193000620030916300309376012093750120910D
:101940006000309161002115310541F42DB73EB79B
:101950004091640050916500241B350BE0917501A6
:10196000F0917601E217F307A0F42E1B3F0B281726
:10197000390778F0AC014E5F5F4F2417350748F008
:101980004E0F5F1F509376014093750181939193A1
:1019900002C0E0E0F0E0CF01DF91CF911F910F9105
:1019A0000895CF93DF93009709F481C0FC0132972B
:1019B00013821282A0917701B0917801109781F47F
:1019C00020813181820F931F209175013091760122
:1019D0002817390751F5F0937601E093750167C038
:1019E000ED0120E030E0CE17DF0740F44A815B8153
:1019F0009E0141155105F1F0EA01F5CFD383C28371
:101A000040815181840F951FC817D90759F48881E7
:101A10009981840F951F0296918380838A819B818F
:101A2000938382832115310529F4F0937801E093A3
:101A300077013DC0E901FB83EA8349915991C40FC5
:101A4000D51FEC17FD0761F480819181840F951FEC
:101A50000296E90199838883828193819B838A839B
:101A6000E0E0F0E012968D919C911397009719F0A9
:101A7000FD01DC01F7CF8D919C9111979D012E5FA7
:101A80003F4F820F931F20917501309176012817E7
:101A9000390769F4309729F4109278011092770190
:101AA00002C013821282B0937601A0937501DF9178
:101AB000CF910895DC0101C06D9341505040E0F793
:101AC000089510E0C6E4D0E003C0FE01CCDE21960C
:0A1AD000C734D107D1F7F894FFCF17
:101ADA0000007901800001000100010001000100FD
:101AEA000100010001000100010001007EFF060063
:101AFA000100000000EF00000000B3058F0B1D0677
:061B0A00920503063406FB
:00000001FF
