:1000000021C03AC039C038C037C06BC235C034C017
:1000100033C032C031C030C02FC02EC02DC001024D
:100020000000040001020408102002020202020281
:100030000000000036000000000038000000000052
:1000400037005D0011241FBECFE5D2E0DEBFCDBF7B
:1000500021E0A0E6B0E001C01D92AE30B207E1F7AA
:1000600010E0C2E2D0E003C02197FE0169D3C132A3
:10007000D107D1F74ED391C3C3CFCF93C0E061E096
:100080008C2FA2D0CF5FCB30D1F7CF910895CF93F3
:100090006DE370E080E690E024D162E370E080E6FA
:1000A00090E01BD1C0E08C2F10D0CF5FCB30D9F7C0
:1000B000CF91089580E690E0EFC121E041E050E06B
:1000C00062E070E080E690E0DAC04F925F926F925B
:1000D0007F928F929F92AF92BF92CF92DF92EF92D8
:1000E000FF920F931F93CF93DF93082F10E0D80157
:1000F000AA0FBB1FAA0FBB1FAE55BF4F1D921D926B
:100100001D921C921397C8018F579F4F4C01FC0101
:100110001082C80169E070E002D3F801EE0FFF1F02
:10012000E457FF4F80839183EC0165E070E0F7D2E4
:100130006C012E0129E0420E511C7D013F01C415C6
:10014000D50588F5C80165E070E0E9D282539F4F7C
:100150005C0145E050E0B601F9D2F5018081918162
:10016000A281B381F7014081518162817381481777
:1001700059076A077B0790F48F3FFFEF9F07AF0790
:10018000BF0761F0F301D183C083F70180839183BE
:10019000A283B383F5018481F40180832196F5E085
:1001A000CF0ED11CCCCFDF91CF911F910F91FF903B
:1001B000EF90DF90CF90BF90AF909F908F907F9007
:1001C0006F905F904F900895CF92DF92EF92FF92E1
:1001D0001F93CF93DF93162FC82FD0E09E01220FDD
:1001E000331FD901A457BF4FED91FC911197319660
:1001F000CE0169E070E093D2AC01475F5F4FE41736
:10020000F50718F4ED93FC9302C08D939C93FE01C7
:10021000EE0FFF1FEE0FFF1FEE55FF4FC080D18086
:10022000E280F3808FEFC81AD80AE80AF80AC08281
:10023000D182E282F382CE0165E070E070D2FC01EF
:10024000E253FF4FC082D182E282F3821483D9014C
:10025000A457BF4F8D919C9165E070E060D245E05E
:1002600050E0BC01CF0182D2CF57DF4F1883DF911E
:10027000CF911F91FF90EF90DF90CF900895FC01F8
:10028000862FA2E3B0E0B383A283A8E5B2E0B583F2
:10029000A483A8EEB3E0B783A683128614861386E0
:1002A00016861586108A1786128A118A148A138A6E
:1002B000168A158A108E178A60837183452B19F070
:1002C0001186108604C041E050E051874087222308
:1002D00011F062E001C060E092C1FC0173836283AF
:1002E0000895FC01748763870895CF92DF92EF929F
:1002F000FF921F93CF93DF93EC01162F3CD16B013C
:100300007C018F89988D009731F4112309F4BCC0CA
:1003100081E090E078C081309105D9F5898D9A8D82
:10032000AB8DBC8DB701A601481B590B6A0B7B0B2B
:1003300011110FC08A819B81A0E0B0E048175907D6
:100340006A077B0718F4188E1F8A9EC082E090E02F
:100350001DC08E819F81A0E0B0E084179507A6079D
:10036000B70708F091C081E08A87EF85F889309758
:1003700009F00995E989FA89309709F00995ED891D
:10038000FE89309709F0099586E090E0988F8F8B71
:1003900068C082309105F1F58D859E85892B99F095
:1003A000898D9A8DAB8DBC8DB701A601481B590B69
:1003B0006A0B7B0B8C819D81A0E0B0E084179507D0
:1003C000A607B70738F4EB85FC85309709F4BBCF57
:1003D0000995B9CF112309F457C08D8D9E8DAF8D2E
:1003E000B8A1B701A601481B590B6A0B7B0B8A8188
:1003F0009B81A0E0B0E084179507A607B70708F037
:1004000043C083E090E0988F8F8BC98EDA8EEB8E9D
:10041000FC8E3AC083309105C1F4111135C0898D2D
:100420009A8DAB8DBC8DB701A601481B590B6A0B89
:100430007B0B8A819B81A0E0B0E084179507A6071B
:10044000B70710F5ED85FE8507C00697E9F4111191
:100450000DC01A86EB89FC89309709F00995188E32
:100460001F8ACD8EDE8EEF8EF8A20EC081E08A87C5
:10047000ED89FE89309741F0DF91CF911F91FF9078
:10048000EF90DF90CF900994DF91CF911F91FF9073
:10049000EF90DF90CF900895CF93DF93EC018881A8
:1004A000998197FD0CC0FAD061E02885398528171D
:1004B000390709F060E0CE01DF91CF9116CFDF91CF
:1004C000CF91089580B7807F80BF80B7806880BF5C
:1004D0008CB580648CBD8FEF8DBD80B7876080BF89
:1004E00008951F920F920FB60F9211242F933F93EE
:1004F0008F939F93AF93BF938091060190910701D3
:10050000A0910801B09109013091050126E0230F67
:100510002D3730F029E8230F0396A11DB11D03C02C
:100520000296A11DB11D20930501809306019093B1
:100530000701A0930801B093090180910A019091ED
:100540000B01A0910C01B0910D010196A11DB11DEF
:1005500080930A0190930B01A0930C01B0930D01BD
:10056000BF91AF919F918F913F912F910F900FBEAF
:100570000F901F9018952FB7F89460910601709115
:10058000070180910801909109012FBF08958AB554
:1005900082608ABD8AB581608ABD83B7887F8360A7
:1005A00083BF789489B7826089BF8CDF86B18877F2
:1005B000866886B9379A0895813031F48AB58F7785
:1005C0008ABD8AB58F7B07C0823039F48AB58F7DAA
:1005D0008ABD8AB58F7E8ABD0895833039F480B78D
:1005E0008F7D80BF80B78F7E80BF0895843031F4C7
:1005F0008CB58F7D8CBD8CB58F7E8CBD0895CF93CF
:10060000DF9387FF11C08F7741F0813041F0823056
:1006100041F0833041F08FEF07C085E005C082E0F4
:1006200003C084E001C083E090E0FC01EC5DFF4F7B
:100630002491FC01E65DFF4F8491882361F190E0F5
:10064000880F991FFC01E45CFF4FC591D491FC0118
:10065000EA5CFF4FA591B491611109C09FB7F8946E
:100660008881209582238883EC912E230BC06230F1
:1006700061F49FB7F8948881322F30958323888363
:10068000EC912E2B2C939FBF06C08FB7F894E88176
:100690002E2B28838FBFDF91CF910895CF93DF93C7
:1006A00087FF11C08F7741F0813041F0823041F0F7
:1006B000833041F08FEF07C085E005C082E003C0C2
:1006C00084E001C083E0282F30E0F901E25EFF4FB3
:1006D0008491F901EC5DFF4FD491F901E65DFF4F84
:1006E000C491CC2389F0811167DFEC2FF0E0EE0F8D
:1006F000FF1FE05DFF4FA591B491EC91ED2381E0E8
:1007000090E021F480E002C080E090E0DF91CF91A2
:10071000089581B781BF3BDFBADCCCDCFECF00247B
:10072000552704C0080E591F880F991F009729F0FC
:1007300076956795B8F37105B9F7802D952F0895D3
:10074000EE0FFF1F0590F491E02D0994DC01CB0121
:10075000FC01E199FECF06C0FFBBEEBBE09A3196EB
:100760000DB20D9241505040B8F70895DC01CB0115
:1007700002C02D9105D041505040D8F70895262F42
:10078000E199FECF1CBA9FBB8EBB2DBB0FB6F89470
:0E079000E29AE19A0FBE01960895F894FFCF09
:00000001FF
