:100000000C9487000C94AF000C94AF000C9428055E
:100010000C9428050C9428050C94AF000C94AF00A8
:100020000C94AF000C94AF000C94AF000C94AF0094
:100030000C94AF000C94AF000C94AF000C94AF0084
:100040000C94DE040C94AF000C94AF000C94AF0041
:100050000C94AF000C94AF000C94AF000C94AF0064
:100060000C94AF000C94AF00570459045B045D047A
:100070005F046104630465046B04710477047D0408
:100080008204880477077F0789076607890768075E
:1000900087079007890789078907890789078907DB
:1000A00089078907900789078907890789078907C9
:1000B00000000000240027002A00000000002500A6
:1000C00028002B0000000000230026002900040463
:1000D00004040404040402020202020203030303F0
:1000E00003030102040810204080010204081020CC
:1000F00001020408102000000008000201000003B3
:1001000004070000000000000000480B6C0C1124E4
:100110001FBECFEFD8E0DEBFCDBF11E0A0E0B1E061
:10012000E0E5FCE102C005900D92A632B107D9F7D7
:1001300022E0A6E2B1E001C01D92AE38B207E1F7BD
:1001400010E0C6E8D0E004C02197FE010E94DB0C5D
:10015000C538D107C9F70E9468080C941B0E0C948F
:100160000000CF92DF92EF92FF920F931F93CF93F5
:10017000DF936C017A018B01C0E0D0E0CE15DF0582
:1001800081F0D8016D918D01D601ED91FC91019026
:10019000F081E02DC6010995892B11F02196EECF53
:1001A0007E01C701DF91CF911F910F91FF90EF90DA
:1001B000DF90CF900895833081F028F4813099F05A
:1001C0008230A1F008958730A9F08830B9F08430EA
:1001D000D1F4809180008F7D03C0809180008F7763
:1001E00080938000089584B58F7702C084B58F7D99
:1001F00084BD08958091B0008F7703C08091B000D6
:100200008F7D8093B0000895CF93DF93282F30E047
:10021000F901EA50FF4F8491F901EE51FF4FD4915B
:10022000F901E253FF4FC491CC2391F081110E9458
:10023000DB00EC2FF0E0EE0FFF1FEC53FF4FA5911A
:10024000B491EC91ED2381E090E021F480E002C0D4
:1002500080E090E0DF91CF9108951F93CF93DF93DB
:10026000282F30E0F901EA50FF4F8491F901EE5157
:10027000FF4FD491F901E253FF4FC491CC23C1F059
:10028000162F81110E94DB00EC2FF0E0EE0FFF1F14
:10029000E654FF4FA591B4919FB7F894111104C093
:1002A0008C91D095D82302C0EC91DE2BDC939FBFBC
:1002B000DF91CF911F910895CF93DF9390E0FC01E0
:1002C000EE51FF4F2491FC01E253FF4F84918823AC
:1002D00061F190E0880F991FFC01E055FF4FC59137
:1002E000D491FC01E654FF4FA591B491611109C06E
:1002F0009FB7F8948881209582238883EC912E23E0
:100300000BC0623061F49FB7F8948881322F30952A
:1003100083238883EC912E2B2C939FBF06C08FB72D
:10032000F894E8812E2B28838FBFDF91CF91089519
:100330002091F9013091FA012817390771F4909151
:10034000F7018091F801981741F0E091F701F0E092
:10035000ED55FE4F808190E008958FEF9FEF089557
:1003600008951F93CF93DF93DC015C968D919C9150
:100370005D97009739F421E030E013963C932E937B
:1003800012973BC05196ED91FC91529750962C914B
:100390005097322F30951FB75E964C915E97742F11
:1003A000727041FD6095F8944081772311F0422BE3
:1003B00001C043234083EC012197F1F748E05081CD
:1003C00060FF02C0522B01C053235083EC012197E0
:1003D000F1F76695415099F78081772319F08323CF
:1003E000808302C0282B20831FBF5C968D919C9137
:1003F0005D970197F1F781E090E0DF91CF911F9138
:1004000008952091F9013091FA012817390771F404
:100410008091F8012091F70190E0805C9F4F821B52
:10042000910960E470E00E94C70C089580E090E0BC
:1004300008952091F9013091FA0128173907B9F48C
:100440009091F7018091F801981789F0E091F701F8
:10045000F0E0ED55FE4F80812091F70130E02F5FF5
:100460003F4F2F7333272093F70190E008958FEFCC
:100470009FEF0895089580E090E008950E94160E81
:100480001F93CF93DF93162FC82FD0E09E01220F2A
:10049000331FF901E357FE4F408151814F5F5F4F9A
:1004A00069E0869FC0011124BC01675F7F4F46173A
:1004B000570718F45183408302C091838083FE0163
:1004C000EE0FFF1FEE0FFF1FEF59FE4F40815181CE
:1004D000628173814F5F5F4F6F4F7F4F40835183C6
:1004E00062837383E5E0EC9FC001ED9F900D1124C2
:1004F000865D9E4FDC014D935D936D937C931397C6
:1005000014961C93D901A357BE4F2D913C91E29FA5
:10051000B001E39F700D112445E050E00E94AF0C44
:10052000C451DE4F1883DF91CF911F9108952F9210
:100530003F924F925F926F927F928F929F92AF9273
:10054000BF92CF92DF92EF92FF920F931F93CF93C0
:10055000DF93282F30E08901000F111F000F111FBA
:10056000D801AF59BE4F1D921D921D921C92139738
:10057000A90144515E4F4A01FA011082F9E08F9FB0
:10058000E0011124F901EE0FFF1FE357FE4FD18365
:10059000C0834DE2849F10011124C12CD12C2E0167
:1005A00059E0450E511C45E0429FC001439F900D0C
:1005B00011249C01265D3E4F79018D013F015901B7
:1005C00034E0A30EB11CC415D50570F545E050E02C
:1005D000B601620D731DC7010E94970CF70180815F
:1005E0009181A281B381F80140815181628173813F
:1005F000481759076A077B0790F48F3FFFEF9F0763
:10060000AF07BF0761F0F301D183C083F801808396
:100610009183A283B383F5018081F40180832196C5
:10062000F5E0CF0ED11CCFCFDF91CF911F910F916D
:10063000FF90EF90DF90CF90BF90AF909F908F9002
:100640007F906F905F904F903F902F9008953FB7AD
:10065000F8948091E8019091E901A091EA01B091AC
:10066000EB0126B5A89B05C02F3F19F00196A11DEF
:10067000B11D3FBFBA2FA92F982F8827820F911D38
:10068000A11DB11DBC01CD0142E0660F771F881F7F
:10069000991F4A95D1F708958F929F92AF92BF927A
:1006A000CF92DF92EF92FF926B017C010E942703B1
:1006B0004B015C01C114D104E104F104F1F00E948A
:1006C0002703DC01CB0188199909AA09BB09883ED7
:1006D0009340A105B10570F321E0C21AD108E108E9
:1006E000F10888EE880E83E0981EA11CB11CC1148D
:1006F000D104E104F10419F7DDCFFF90EF90DF9012
:10070000CF90BF90AF909F908F90089580910201FD
:1007100090910301019690930301809302018091CF
:100720000201909103010B9734F081E090E09093E7
:1007300003018093020160910201709103018AE03C
:100740000E944002E0910201F0910301E150F0E0CB
:10075000E451FE4F808190E090930101809300016D
:100760008091020190910301019729F040E050E04F
:100770006FEF70E004C040E05FEF60E070E080E0A9
:1007800090E00E9462060E94A20562E370E080E0B1
:1007900090E00E944C0340E050E0BA0180E090E01D
:1007A0000E9462060C94A2058F929F92AF92BF9214
:1007B000CF92DF92EF92FF920F931F93CF93DF932D
:1007C0004B015C01C42ED12CE12CF12C809128012D
:1007D00090912901892BD9F5C0E0D0E000E010E02C
:1007E00080917702909178020817190750F4B501AB
:1007F000A401CE01800F911F0E9462060D5F1F4F62
:10080000EFCF0E94A205C701B6010E944C0300E091
:1008100010E080917702909178020817190758F438
:1008200040E050E0BA01CE01800F911F0E946206A5
:100830000D5F1F4FEECF2196C330D10579F68CE0C6
:100840000E9404019093290180932801BFCF109248
:10085000290110922801DF91CF911F910F91FF90F4
:10086000EF90DF90CF90BF90AF909F908F900C94BF
:10087000A20580912601909127010196909327016E
:100880008093260180912601909127010E9724F0F4
:100890001092270110922601E0912601F091270184
:1008A000EE30F105E0F5EC5CFF4F0C94DB0C44E618
:1008B0000DC044E611C044E615C044E619C044E644
:1008C0001DC044E620C044E624C048EC6FEF7FEF33
:1008D0008FEF90E022C048EC60E070E08FEF90E096
:1008E0001CC048EC6FEF70E080E090E016C048EC70
:1008F00060E07FEF80E090E010C048EC6FEF70E0C8
:10090000CB010BC048EC6FEF7FEF80E090E005C0BB
:1009100048EC60E07FEF8FEF90E00C94D4030895F3
:100920008091000190910101609102017091030199
:10093000762F6627682B8FE00E94D6070E94390425
:1009400080910001909101010196909301018093A3
:100950000001E0910201F0910301EE0FFF1FE7504B
:10096000FE4F208131818091000190910101281773
:10097000390734F481E090E0909301018093000105
:100980006091000170910101809102019091030139
:1009900081500C94400261E073E68FE00E94D6071C
:1009A0000C9439042FB7F8946091E4017091E5013B
:1009B0008091E6019091E7012FBF08951F920F9259
:1009C0000FB60F9211242F933F938F939F93AF9362
:1009D000BF938091E4019091E501A091E601B0916F
:1009E000E7013091E30123E0230F2D3720F4019636
:1009F000A11DB11D05C026E8230F0296A11DB11D42
:100A00002093E3018093E4019093E501A093E60134
:100A1000B093E7018091E8019091E901A091EA018A
:100A2000B091EB010196A11DB11D8093E801909357
:100A3000E901A093EA01B093EB01BF91AF919F91BF
:100A40008F913F912F910F900FBE0F901F9018958F
:100A50001F920F920FB60F9211242F933F934F9333
:100A60005F936F937F938F939F93AF93BF93EF9316
:100A7000FF93E091F901F091FA01309709F451C028
:100A8000968DA685B785858591FF04C09C918923A5
:100A900029F447C09C91892309F043C0A389B489F4
:100AA0009C918589809589238C9386899789019764
:100AB000F1F7608D718DA685B785558538E020E00A
:100AC000CB010197F1F7822F90E095958795282F1C
:100AD0004C91452309F02068315091F7868D81FDB6
:100AE00020958091F80190E001968F7399273091BD
:100AF000F701381749F0A091F801B0E0AD55BE4FAD
:100B00002C938093F80103C0868D8160868F828D3F
:100B1000938D0197F1F7A389B4899C918589892BDD
:100B20008C93FF91EF91BF91AF919F918F917F91A6
:100B30006F915F914F913F912F910F900FBE0F904A
:100B40001F9018950F931F93CF93DF93CDB7DEB708
:100B500029970FB6F894DEBF0FBECDBF80917D02FE
:100B600090917E02892B09F4A2C00E942703009174
:100B70008302109184022091850230918602DC016B
:100B8000CB01801B910BA20BB30B8C329140A105C2
:100B9000B10558F3F8948091790290917A029A8382
:100BA0008983E0917D02F0917E02DF0111968081C0
:100BB000898790917502E0918702F0918802809177
:100BC0008902992309F42EC09081982B98879081EF
:100BD000809589238F838F818C8388E08B835885D0
:100BE0006F8149853B812C8189819A81508347FDA2
:100BF000252F3A952083262F39F0441F00C000008E
:100C00006083000000C0F2CF38E04D9160830000A7
:100C1000019761F7F0938802E093870249873B834D
:100C20002C8338C09081982B988790818095892358
:100C30008F838F818E8388E08D8358856F8149856E
:100C40003D812E8189819A81508347FD252F00C0E7
:100C500000C0208300C000C000C000C000C060838E
:100C60000000262F3A9541F0441F000000C000C04C
:100C700000C000C000C0E8CF38E04D9100C06083E4
:100C800000C0019709F7F0938802E0938702498733
:100C90003D832E839A83898378940E9427036093EF
:100CA0008302709384028093850290938602299632
:100CB0000FB6F894DEBF0FBECDBFDF91CF911F916D
:100CC0000F9108958F929F92AF92BF92CF92DF9231
:100CD000EF92FF92CF93DF932091770230917802C9
:100CE0008217930708F057C04B01AA24BB24F82DA4
:100CF000C52ED62EE72EFF24AC2DE42F20917C02AA
:100D0000222361F0829E40011124F92D2C9D600167
:100D10001124AD2D249FE0011124ED2F309182028A
:100D2000B0917F02E0907D02F0907E023B1308C0FC
:100D30009C01220F331F820F931F8E0D9F1D19C020
:100D4000880F991F880F991F8E0D9F1D472F5527BC
:100D500066277727EC01C30FD11D222349F030E02D
:100D6000249F7001259FF00C349FF00C11244F2D0F
:100D7000488320917F02EC01C20FD11DF88320919E
:100D80008002EC01C20FD11DA88320918102DC01F9
:100D9000A20FB11DEC93DF91CF91FF90EF90DF9008
:100DA000CF90BF90AF909F908F9008950F931F9317
:100DB000CF9380914F0290915002DC01ED91FC9114
:100DC0000084F185E02D0995892B09F4B9C060E014
:100DD00070E0CB010E944C03C0916D0280914F02E4
:100DE00090915002DC01ED91FC910284F385E02D9D
:100DF000C11108C00995809359028E37D1F68091B0
:100E00006D029AC00995EC2FF0E0E15BFD4F8287FF
:100E100080916D028230A1F08930C1F0813009F0FB
:100E20008BC090915A029F3F09F486C010926D02C8
:100E300081E080936F021092720210927102AAC038
:100E400090915B02963009F477C0F0CF80916202F6
:100E50008F3E61F7EAE5F2E080E692E020E030E0E4
:100E60004191240F311D8E179F07D1F780916002A9
:100E700090E0982F882740916102840F911D319551
:100E8000219531098217930789F610926D02E0913E
:100E90005C02E13409F44DC0E093700280915E027F
:100EA00090E0982F882720915F02820F911D9093E8
:100EB0007202809371024E2F50E0FA01FA97E631E8
:100EC000F10570F5EE5BFF4F0C94DB0C85E022C062
:100ED00080FF02C089E01EC081FF02C084E01AC00A
:100EE00083709927892B09F45BC08AE013C080FFC7
:100EF00002C087E00FC081FF53C082E00BC080FFBB
:100F000002C088E007C081FF4BC083E003C086E0D9
:100F100001C08BE080936F0281E08093730240C038
:100F200081E080936F02109272021092710280939E
:100F300073021092740234C08F5F80936D0239CFB8
:100F400080917402882361F10E94D20400915102C1
:100F5000109152022091530230915402DC01CB01D6
:100F6000801B910BA20BB30B0091550210915602FE
:100F7000209157023091580280179107A207B307BA
:100F800078F010926D0210926F021092720210921D
:100F9000710281E0809373021092740280E002C0BB
:100FA00080917302CF911F910F91089580936602F3
:100FB0007093680260936902E4E6F2E02AE632E0A8
:100FC00080E090E04191840F911D2E173F07D1F7EB
:100FD00091958195910990936A0280936B0280911B
:100FE0006702882361F080917402882341F060E0F9
:100FF00070E0CB010E944C030E94D606F4CF809192
:101000004F0290915002DC01ED91FC910280F3813E
:10101000E02D4AE050E063E672E009950E94D204B8
:101020006093510270935202809353029093540242
:101030008091670291E0811101C090E09093740269
:10104000811106C06AE070E080E090E00C944C03EF
:1010500008958F929F92AF92BF92CF92DF92EF92BC
:10106000FF92CF936B017C010E94D2044B015C0183
:10107000C114D104E104F10441F4C0905502D090B0
:101080005602E0905702F09058020E94D606C82FF0
:10109000811113C00E94D204DC01CB018819990987
:1010A000AA09BB09C816D906EA06FB0630F060E0BB
:1010B00070E0CB010E944C03E8CF8C2FCF91FF90C2
:1010C000EF90DF90CF90BF90AF909F908F9008955A
:1010D000789484B5826084BD84B5816084BD85B513
:1010E000826085BD85B5816085BD80916E0081601F
:1010F00080936E00109281008091810082608093C5
:1011000081008091810081608093810080918000C6
:101110008160809380008091B10084608093B100F1
:101120008091B00081608093B00080917A008460EB
:1011300080937A0080917A00826080937A00809117
:101140007A00816080937A0080917A008068809331
:101150007A001092C1008FEF93E00E94A70C8F3F9E
:10116000A1F4C0E08C2F0E949702CF5FCB30D1F763
:10117000C0E061E08C2F0E944002CF5FCB30C9F706
:1011800061E08FEF93E00E94B90C80917B0287FDB4
:1011900008C061E00E945C0160E080917B020E94D7
:1011A0002D0181E0809376020E94A20580E994E0FF
:1011B00090933A028093390286E893E090933C0240
:1011C00080933B028BEC94E0909344028093430223
:1011D00082E390E09093310280933002C0E08C2F44
:1011E0000E949702CF5FCB30D1F78091F60190E05B
:1011F0009093030180930201E0910201F0910301B9
:10120000E150F0E0E451FE4F808190E090930101C5
:101210008093000160E08CE00E945C0110922A0241
:101220001092290210922802109227021092260290
:10123000109225028DE991E090932C0280932B026D
:1012400090911B02963108F058C02DEB30E030939E
:101250002602209325022BE931E0309328022093C7
:1012600027022CE231E030932A0220932902409198
:101270006800983058F031E09E3008F430E021E00A
:10128000822F01C0880F3A95EAF701C084E0842BD1
:1012900080936800983038F09E3040F0963148F4E2
:1012A0002CE630E008C02DE630E005C02BE630E04B
:1012B00002C020E030E030932302209322029830D5
:1012C00030F481E001C0880F9A95EAF70EC0292F0B
:1012D00030E09E3018F42850310902C02E503109F8
:1012E00081E001C0880F2A95EAF78093240280915B
:1012F0002B0290912C020197F1F780912902909195
:101300002A02892B49F1E091F901F091FA0182E07A
:10131000EF30F80709F1309739F0A389B4899C912F
:101320008589809589238C9380912D028E7F80936F
:101330002D021092F8011092F7018FE092E0909345
:10134000FA018093F901E0912202F0912302908149
:1013500080912402892B8083CFE0D2E011E0D093EA
:101360005002C0934F021093670260E070E08CE07F
:101370000E94D60760ED77E080E090E00E942908A7
:1013800068EC70E080E090E00E944C0310927302E1
:1013900080916F02843019F0893009F072C1C1E088
:1013A000D0E08E0101501109BE018EE40E94D607E3
:1013B00060E070E0CB010E942908811103C08FEF2B
:1013C0009FEF0AC01092730280916F028B30B9F7C1
:1013D0008091710290917202F801EE0FFF1FE550AB
:1013E000FE4F91838083808191810E94D60664E6BE
:1013F00070E080E090E00E944C032196CB30D10554
:1014000081F664E170E086E00E94D60760E070E05B
:1014100087E00E94D60762E070E089E00E94D6076C
:1014200068EC70E080E090E00E944C0380E0282EA1
:1014300080E0382E93E0892E912C26E0E22EF12CCC
:1014400032E0C32ED12CAA24A394B12C80912E0279
:1014500090912F0297FD0EC10E9404018C01C09152
:101460003602D09137020E94D2042B013C018091B8
:10147000450290914602009749F40C171D0709F0A8
:10148000F9C0B0924602A0924502A1C081309105F8
:1014900009F04FC08091470290914802A091490203
:1014A000B0914A02B301A201481B590B6A0B7B0B96
:1014B0000C171D07A9F08091300290913102A0E035
:1014C000B0E0481759076A077B0728F410924602D4
:1014D00010924502CFC0D0924602C0924502B7C0DA
:1014E0008091340290913502A0E0B0E08417950716
:1014F000A607B70708F0BEC081E080933802E091EC
:101500003D02F0913E02309709F00995E0913F02CB
:10151000F0914002309709F00995E0914302F09173
:101520004402309709F00995F0924602E092450294
:101530008EC08230910509F053C080913B0290919A
:101540003C02892BC9F08091470290914802A091FA
:101550004902B0914A02B301A201481B590B6A0B20
:101560007B0B8091320290913302A0E0B0E08417AF
:101570009507A607B70748F4E0913902F0913A02BF
:10158000309709F4A3CF0995A1CF0C171D0709F0D7
:1015900071C080914B0290914C02A0914D02B0918C
:1015A0004E02B301A201481B590B6A0B7B0B8091C1
:1015B000300290913102A0E0B0E084179507A607B1
:1015C000B70708F057C090924602809245024092B9
:1015D0004702509248026092490270924A024AC001
:1015E0008330910511F50C171D0709F443C0809154
:1015F000470290914802A0914902B0914A02B3017A
:10160000A201481B590B6A0B7B0B80913002909111
:101610003102A0E0B0E084179507A607B70750F5A0
:10162000E0913B02F0913C020BC0069719F50C17B4
:101630001D07B1F010923802E0914102F091420290
:10164000309709F009951092460210924502409297
:101650004B0250924C0260924D0270924E020AC0B0
:1016600081E080933802E0914302F0914402309788
:1016700009F009952114310409F4E8CE0E94000014
:10168000E5CE64E670E080E090E00E944C0367CE17
:101690001092760210927C021092830210928402C1
:1016A00010928502109286021092820210927F029E
:1016B00081E08093800292E0909381028093750292
:1016C0008CE090E090937A02809379020E94F50C6E
:1016D00090937E0280937D02009761F02CE0FC01E4
:1016E00011922A95E9F784E090E090937802809334
:1016F000770208C010927A02109279021092780252
:10170000109277028BE080937B028091760288238F
:1017100041F061E08BE00E945C0160E08BE00E94A0
:101720002D01E9EDF0E0E491F0E0EE0FFF1FE6544B
:10173000FF4F859194919093880280938702EDEEFC
:10174000F0E0E491E093890282E390E0909331022B
:101750008093300288E592E09093330280933202C6
:1017600088EE93E090933502809334021092380211
:1017700010923A021092390210923C0210923B02EF
:1017800010923E0210923D021092400210923F02CF
:1017900010924202109241021092440210924302AF
:1017A00010924602109245028AE090E090932F0238
:1017B00080932E02109237021092360262E00E944D
:1017C0005C01109212021092110288EE93E0A0E0E8
:1017D000B0E08093130290931402A0931502B0938B
:1017E000160288E191E09093100280930F0210920C
:1017F00026021092250210922802109227021092BF
:101800002A021092290210922C0210922B0260914F
:101810002D026E7F6D7F60932D026695617081E071
:10182000682789E00E942D0161E089E00E945C0147
:10183000EBEEF0E0E491E0931F02E7EDF0E0E491DD
:10184000F0E0EE0FFF1FE654FF4F859194919093C7
:1018500021028093200260E088E00E945C01809178
:101860002D0281FD04C061E088E00E942D0188E026
:1018700080931B02EAEEF0E0E491E0931C02E6EDB7
:10188000F0E0E491F0E0EE0FFF1FEC53FF4F859185
:10189000949190931E0280931D0284EF91E0A0E04A
:1018A000B0E08093550290935602A0935702B093F4
:1018B00058028AE0EAE0F1E0A3E6B2E001900D927E
:1018C0008A95E1F710926D0282E080936E02109289
:1018D000730210927402089588E191E090931002CF
:1018E00080930F028091F9019091FA018F509240FC
:1018F00071F4E0912202F091230290818091240200
:101900008095892380831092FA011092F9018091C9
:101910007D0290917E02009711F00E948D0D8091C2
:101920007B0287FD03C060E00C945C010895DC013C
:10193000CB01FC01F999FECF06C0F2BDE1BDF89ADA
:10194000319600B40D9241505040B8F70895F9997E
:10195000FECF92BD81BDF89A992780B50895DC012C
:10196000CB0103C02D910E94BA0C41505040D0F7DA
:101970000895262FF999FECF1FBA92BD81BD20BDD3
:101980000FB6F894FA9AF99A0FBE0196089597FB4C
:10199000072E16F4009407D077FD09D00E94E10CC1
:1019A00007FC05D03EF4909581959F4F0895709562
:1019B00061957F4F0895EE0FFF1F0590F491E02D84
:1019C0000994AA1BBB1B51E107C0AA1FBB1FA61786
:1019D000B70710F0A61BB70B881F991F5A95A9F7D8
:1019E00080959095BC01CD0108950F931F93CF93DF
:1019F000DF938230910510F482E090E0E0918C0258
:101A0000F0918D0220E030E0A0E0B0E0309719F1D5
:101A1000408151810281138148175907C8F084170A
:101A2000950769F4109731F012960C93129713965C
:101A30001C9327C000938C0210938D0222C02115A5
:101A4000310519F04217530718F49A01BD01EF014F
:101A5000DF01F801DBCF21153105F9F0281B390B27
:101A60002430310580F48A819B816115710521F054
:101A7000FB019383828304C090938D0280938C0238
:101A8000FE01329644C0FE01E20FF31F8193919351
:101A900022503109398328833AC020918A0230913B
:101AA0008B02232B41F420910601309107013093E2
:101AB0008B0220938A0220910401309105012115A7
:101AC000310541F42DB73EB740910801509109010D
:101AD000241B350BE0918A02F0918B02E217F30789
:101AE000A0F42E1B3F0B2817390778F0AC014E5F8E
:101AF0005F4F2417350748F04E0F5F1F50938B023E
:101B000040938A028193919302C0E0E0F0E0CF011C
:101B1000DF91CF911F910F910895CF93DF9300979D
:101B200009F481C0FC01329713821282A0918C02C9
:101B3000B0918D02109781F420813181820F931F23
:101B400020918A0230918B022817390751F5F093C2
:101B50008B02E0938A0267C0ED0120E030E0CE17EF
:101B6000DF0740F44A815B819E0141155105F1F088
:101B7000EA01F5CFD383C28340815181840F951F41
:101B8000C817D90759F488819981840F951F029647
:101B9000918380838A819B81938382832115310580
:101BA00029F4F0938D02E0938C023DC0E901FB83A0
:101BB000EA8349915991C40FD51FEC17FD0761F4D1
:101BC00080819181840F951F0296E9019983888312
:101BD000828193819B838A83E0E0F0E012968D916D
:101BE0009C911397009719F0FD01DC01F7CF8D91BF
:101BF0009C9111979D012E5F3F4F820F931F209163
:101C00008A0230918B022817390769F4309729F43A
:101C100010928D0210928C0202C013821282B09335
:101C20008B02A0938A02DF91CF91089581E090E02A
:101C3000F8940C941B0E10E0C6E8D0E004C0FE013E
:101C40000E94DB0C2196C738D107C9F7F894FFCF63
:101C50000100010000008E0280007EFF06000100EE
:101C6000000000EF00000000B101B1003B02B00134
:061C7000010219029801B7
:00000001FF
